:020000040800F2
:10000000F0450020D9010008353200089D31000874
:10001000313200089D060008A565000800000000B8
:100020000000000000000000000000009D470008E4
:10003000550800080000000039320008A1470008F8
:10004000F3010008F3010008F3010008F3010008C0
:10005000F3010008F3010008F3010008F3010008B0
:10006000F3010008F301000861080008F30100082B
:10007000F3010008F3010008F3010008F301000890
:10008000F3010008F3010008F3010008F301000880
:1000900041640008F3010008F30100086908000842
:1000A000F3010008F3010008F3010008F301000860
:1000B000DD470008F3010008F3010008F301000820
:1000C000F3010008F3010008F3010008F301000840
:1000D000F3010008F3010008F3010008F301000830
:1000E00059080008F3010008F301000800F002F8C5
:1000F00000F063F80AA090E8000C82448344AAF15F
:100100000107DA4501D100F058F8AFF2090EBAE85C
:100110000F0013F0010F18BFFB1A43F0010318473B
:1001200080990000A09900000A444FF0000C10F8DC
:10013000013B13F0070408BF10F8014B1D1108BF65
:1001400010F8015B641E05D010F8016B641E01F805
:10015000016BF9D113F0080F1EBF10F8014BAD1C55
:100160000C1B09D16D1E58BF01F801CBFAD505E073
:1001700014F8016B01F8016B6D1EF9D59142D6D3CD
:10018000704700000023002400250026103A28BFF5
:1001900078C1FBD8520728BF30C148BF0B607047F9
:1001A0001FB500F017FA04000020002109F092F9B1
:1001B000401C60601FBD10B510BD00F0E6F911468F
:1001C000FFF7EEFF08F058FD00F016FA03B4FFF752
:1001D000F2FF03BC00F05AFA09488047094800477B
:1001E000FEE7FEE7FEE7FEE7FEE7FEE7FEE7FEE7E7
:1001F000FEE7FEE704480549054A064B7047000044
:10020000D9470008ED000008F03F0020F04500202D
:10021000F0410020F041002070B5064600F0DEF805
:100220000468054630460A22002100F0DBF82C6005
:1002300070BD0000014A00F00DB900000000002070
:10024000CBB22AB101788B4203D0401C521EF9D1A7
:1002500000207047032A40F2308010F0030C00F0B9
:10026000158011F8013BBCF1020F624498BF11F8F0
:1002700001CB00F8013B38BF11F8013BA2F10402A9
:1002800098BF00F801CB38BF00F8013B11F0030321
:1002900000F02580083AC0F0088051F8043B083A85
:1002A00051F804CBA0E80810F5E7121D5CBF51F827
:1002B000043B40F8043BAFF30080D20724BF11F8A1
:1002C000013B11F801CB48BF11F8012B24BF00F806
:1002D000013B00F801CB48BF00F8012B704710B577
:1002E000203AC0F00B80B1E81850A0E81850B1E8EF
:1002F0001850A0E81850203ABFF4F5AF5FEA027C2E
:1003000024BFB1E81850A0E8185044BF18C918C05D
:10031000BDE810405FEA827C24BF51F8043B40F8FE
:10032000043B08BF7047D20728BF31F8023B48BFE3
:1003300011F8012B28BF20F8023B48BF00F8012B21
:1003400070474FF000020429C0F0128010F0030C37
:1003500000F01B80CCF1040CBCF1020F18BF00F8B8
:10036000012BA8BF20F8022BA1EB0C0100F00DB867
:100370005FEAC17C24BF00F8012B00F8012B48BFC5
:1003800000F8012B70474FF0000200B51346944669
:100390009646203922BFA0E80C50A0E80C50B1F1DD
:1003A0002001BFF4F7AF090728BFA0E80C5048BFF1
:1003B0000CC05DF804EB890028BF40F8042B08BF8F
:1003C000704748BF20F8022B11F0804F18BF00F88B
:1003D000012B704770477047704700000048704716
:1003E000980100202DE9F04791460F4680460446CB
:1003F000002614F8015B2DB100F052F80068405D52
:10040000C007F6D12B2D02D02D2D18D0641E4A46E0
:100410003946204600F04CF827B13968A14201D195
:10042000C7F800804FF0020471050BD54042002848
:1004300003DDFFF7D3FF0460A007BDE8F08746F4B3
:100440008066E4E70028F8DAFFF7C8FF04606FF081
:100450000040F2E72DE9F04115460E46040002D1B6
:100460002C6804B90BA4204600F081F804442078DD
:1004700070B127463146384600F069F804442078C8
:1004800010B1002004F8010B38462C60BDE8F08163
:100490000027F9E70000000000487047980100209D
:1004A00010B500F097F8001D10BD00BF29900000A6
:1004B0002DE9F05F824615468B4600270AF10104BC
:1004C000B9460078302801D09DB113E014F8010B33
:1004D0000127782803D0582801D045B10AE00DB192
:1004E000102D07D1002714F8010B102502E0082574
:1004F00000E00A250026B0460EE005FB080005FBDB
:1005000006F101271FFA80F801EB1046B6F5803F8F
:1005100000D3B94614F8010B294600F05FF8002813
:10052000EBDABBF1000F05D00FB1641E00E05446BA
:10053000CBF80040B9F1000F06D0FFF74FFF0221C2
:100540000160C81EBDE8F09F48EA0640FAE730B5F2
:1005500003461D781DB10A4603E0AC4201D1181ACA
:1005600030BD12F8014B002CF7D15B1CF1E730B520
:1005700003461D783DB10A4612F8014B1CB1AC424E
:10058000FAD15B1CF5E7181A30BD7546FFF784FFFA
:10059000AE4605006946534620F00700854618B070
:1005A00020B5FFF727FEBDE820404FF000064FF0D2
:1005B00000074FF000084FF0000BAC46ACE8C00954
:1005C000ACE8C009ACE8C009ACE8C00921F00701FB
:1005D0008D46704700487047B80100203A2800D285
:1005E000303820F02002412A01D3A2F1370088429E
:1005F00001D34FF0FF30704710B50446AFF30080D1
:100600002046BDE81040FFF7E1BD00004FF0013C7F
:1006100050F8042B51F8043B9A4221D1A2EB0C0371
:10062000934313EACC1317D150F8042B51F8043B31
:100630009A4215D1A2EB0C03934313EACC130BD1CE
:1006400050F8042B51F8043B9A4209D1A2EB0C0359
:10065000934313EACC13DBD04FF00000704700BF88
:10066000D01A01BAB1FA81F101F0180122FA01F0B1
:10067000CB40DBB2C0B2C01AC1F120012CFA01F3A9
:10068000D11A914311EAC311E6D1704701491820EC
:10069000ABBEFEE72600020070470000FEE7000048
:1006A000002070470020704710B543F65014C2F286
:1006B000000440F6A461C2F200012046002204F0CA
:1006C00091F940F6A421C2F20001204604F084F919
:1006D000002010BD70B540F25025C2F200052E6812
:1006E000044641F2A420212EC2F200000CDC40F6A8
:1006F000A42100EB4610C2F200014FF48062FFF724
:10070000A9FD701C286024E0143001214FF41672FA
:10071000FFF796FD686048B1411D40F6A400C2F2A3
:1007200000004FF40072FFF795FD08E040F204204E
:10073000C2F2000011A10522642302F0F3FB0020A5
:10074000286041F2A420C2F200004FF48861FFF754
:100750001AFE40F6A420C2F200004FF48061FFF7B9
:1007600012FE43F65015C2F200052846214604F059
:1007700033F9284604F012F9002070BD6E756C6CD8
:10078000000000002DE9F04385B040F20426054644
:1007900040F60004C2F200064FF40050C4F2010417
:1007A000F06001204FF0040802904FF0030901A906
:1007B0002046CDF80480CDF8109000F0EBF82046EC
:1007C00004210022002700F0F3F9962005F0B6FF7F
:1007D00020460421012200F0EBF91E2005F0AEFFB7
:1007E0000220029001A92046CDF80480CDF8109097
:1007F00000F0D0F801A93046012264238DF804707E
:1008000002F090FBE91930460122642302F08AFBD2
:100810000137B7F5007FF5D10120042502900326AA
:1008200001A920460195049600F0B4F82046042161
:10083000002200F0BDF94FF47A7005F07FFF02202E
:10084000029001A920460195049600F0A3F805B096
:10085000BDE8F083704700004FF4004000F08EB810
:10086000102000F08BB8000080B5202000F086F842
:10087000402000F083F8802000F080F84FF4807072
:1008800000F07CF84FF40070BDE8804000F076B8CE
:10089000EFF3108072B600BFFEE7000080B541F2B2
:1008A000E463C2F200035A7A012A84BF012080BDAA
:1008B00093F809C08646002003F80C005A7A03EB2F
:1008C0008202C2F804E05A7A1A44107293F809C0FE
:1008D0000CF101025A720CF130020A7042F63A72BF
:1008E000A1F80120C87080BDFF280DDC102821D0A0
:1008F00040282BD080283FD140F2FC10C2F20000EB
:1009000001214170704700BFB0F5807F26D0B0F55F
:10091000007F2BD0B0F5004F18BF704740F2FC109D
:10092000C2F2000001780131CAB2023A18BF0A4689
:100930000270704740F2FC10C2F2000041780131B1
:10094000CAB2053A18BF0A464270704740F2FC101E
:10095000C2F2000000214170704700BF40F2FC105D
:10096000C2F2000002214170704700BF40F2FC104B
:10097000C2F20000032141707047000040F21441B0
:10098000C4F201010A68024214BF08607047FFF711
:10099000ABBF00002DE9F04F82B00E68002E00F0D2
:1009A000038141F20042C4F20102042340F2004EEE
:1009B000904208BF03234FF6FF7CC4F2010E009360
:1009C00000240123C1F2100C4FF0000A4FF000097F
:1009D00049E000BF012704F00C030F229A402BEAE4
:1009E000020207FA03F34FEA9A051A4346F8252054
:1009F000D1F804B040F20C455FEACB22DEF80820C3
:100A000054BF22EA080242EA0802C4F20105CEF805
:100A100008202A685FEA8B2354BF22EA080242EAD0
:100A200008022A605FEA8B33DEF8042054BF22EA12
:100A3000080242EA08025FEACB33CEF80420DEF86F
:100A400000204FF0010354BF22EA080242EA0802E4
:100A5000CEF800200E680AF1010A36FA0AF204F113
:100A6000040400F0A18003FA0AF816EA080FF1D096
:100A70004E68664512DC122E56D8DFE806F0350BBC
:100A80004549555555555555555555555555554D3A
:100A9000510000BFD1F80C9046E000BF4FF6FF7246
:100AA000C1F2210296420FDC0022C1F211029642ED
:100AB0001AD00022C1F21202964215D00022C1F2D1
:100AC0002102964210D02FE00022C1F2220296426B
:100AD0000AD00022C1F23102964205D00022C1F2B2
:100AE0003202964220D100BF8A684AB1012A14BF5F
:100AF000C0F81480C0F810804FF0080914E000BF5F
:100B00004FF0040910E000BFCA6802F108090BE0C9
:100B10004FF0000908E000BFCA6802F1040903E0D1
:100B2000CA6802F10C0900BF22460646BAF1080F56
:100B300024BF203A043637680F25954027EA05057B
:100B400009FA02F22A433260CA79D2067FF582AFEF
:100B500041F21803C4F202031A68AEF57E7642F041
:100B600001021A601A6802F001020192019A2AF049
:100B7000030256F802B040F60002C4F201029042AD
:100B800010D040F60042C4F2010290423FF422AF7E
:100B900041F20002C4F20102009F904208BF022706
:100BA00019E700BF002716E702B0BDE8F08F00008C
:100BB000002A08BF090401617047000043F6EC7089
:100BC000C2F200000068704740F2040043F6EC7186
:100BD000C2F20000C2F2000100780A681044086006
:100BE0007047000080B542F20000C4F202000168C4
:100BF00041F010010160032000F08EF80F2000F09A
:100C000005F800F027F8002080BD000070B540F224
:100C10000406C2F2000640F22C013278C2F2000152
:100C20004FF47A730968B3FBF2F20446B1FBF2F1B8
:100C3000084601F0F3FD0F2C4FF0010508D838B934
:100C40004FF0FF3021460022002500F039F8746093
:100C5000284670BD82B041F21800C4F2020001685B
:100C6000022241F001010160016801F001010191DE
:100C70000199416841F080514160406800F0805026
:100C8000009000980420C4F20100016862F31A6128
:100C9000016002B070470000002848BF7047C1B231
:100CA00000F01F00012202FA00F04EF20012CEF214
:100CB000000242EAD10121F0030108607047000000
:100CC00010B54EF60C5CCEF2000CDCF80030C3F32D
:100CD000022E8EF00704042C28BF0424BEF1030367
:100CE0004FF0FF3E0EFA04F438BF0023A1439940B1
:100CF0000EFA03F39A43114300F00F0200F1604330
:100D00000901043A03F564436244002848BF02F134
:100D10000C03197010BD00004EF60C51CEF200010C
:100D20000A684FF6FF031A4060F30A2242F080601F
:100D300040F0FD700860704780B501F0070C0CEBC7
:100D40008C0C00EBCC0C01EB810E0CF1280C00EBB1
:100D5000CE00090658BF00F5B47C0020002A19BF58
:100D6000CCF808300121ACF8063000218CF80C10CA
:100D700080BD00007047000001EB8102D0F8EC322A
:100D800000EBC200C26B184604F0B4B801EB81025C
:100D9000D0F8EC3200EBC200D0F87C21184604F009
:100DA0000FB9000010B5044648B2B0F1FF3F01F0A2
:100DB000070000EB800104EBC10205DD02F5B47110
:100DC000002382F8693104E0012302F1280182F84E
:100DD000293094F8A8220870012A04BF022010BD0F
:100DE0002068012284F8A82204F018FE002084F86C
:100DF000A80210BDB0B50446406801F00F0282425F
:100E000084BF0120B0BD48B2B0F1FF3F01F0070040
:100E100000EB800104EBC10206DD02F5B471002392
:100E200082F8693105E000BF012302F1280182F850
:100E3000293094F8A8220025012A8D70087004BF7B
:100E40000220B0BD2068012284F8A82204F076FEBA
:100E5000284684F8A852B0BD01F0070101EB8101DA
:100E600000EBC100D0F884017047000070B5064661
:100E700048B2B0F1FF3F01F0070000EB800107DD51
:100E800006EBC10404F5B471002584F8695106E04D
:100E900006EBC10C01240CF128018CF829400870E4
:100EA0000A61022BCB7004BF0020087196F8A802DB
:100EB000012804BF022070BD3068012286F8A822F4
:100EC00004F084FC002086F8A80270BD10B501F083
:100ED000070C0CEB8C0100EBC10E00680EF5B47131
:100EE0000024CEF87C21CEF88031CEF884418EF8F3
:100EF00069418EF868C104F079FE002010BD000041
:100F0000B0B50446406801F00705854284BF012062
:100F1000B0BD48B2B0F1FF3F0ADD01EB810004EB48
:100F2000C00000F5B471002280F8692109E000BF1B
:100F300005EB850004EBC000012200F1280180F8D8
:100F4000292094F8A802012201288A700D7004BF9C
:100F50000220B0BD206884F8A82204F02DFE1DB147
:100F6000002084F8A802B0BD206804F52C7104F0BC
:100F7000E3FD002084F8A802B0BD000080B501F0B8
:100F8000070C0CEB8C0100EBC10101F828CF0068C5
:100F90004FF0010C01F1140781F824C04FF0000E4E
:100FA00087E80C400B6281F801C004F01FFE0020AE
:100FB00080BD00002DE9F04F81B00446006805F0C7
:100FC00045FA01041ED4410500F11084410400F1EA
:100FD0001F84810400F13684C10400F13D840105C1
:100FE00000F15484810500F1A384C00540F10C8414
:100FF0002068B0F8441021F48071A0F8441000F08B
:1010000003BC00BF2068B0F94410B1F1FF3F00F30A
:10101000FB8304F52C7140F60F75009123E000BFAF
:10102000B0F8501094F8682101EBC20100EB4101C7
:10103000B1F80C34B4F86E2100996FF39F23C4F813
:10104000843105F007FA2068018829408031018049
:10105000204600F041FD00BF2068B0F94410B1F116
:10106000FF3F00F3D183B0F8442012F00F090DD0F8
:1010700030F929104FEA490AB1F1FF3F1FFA81F810
:1010800032DD5FEA0860E7D562E100BF0188D20681
:101090006CD4294001F500410180B0F8501094F85B
:1010A000282001EBC20100EB4100B0F80404E16B21
:1010B0006FF39F2060640844E06320460021FFF73F
:1010C0005BFE94F824000028C6D0206C0028C3D111
:1010D00094F82400216840F08000C0B2A1F84C00D0
:1010E000002084F82400B7E730F81A102940803136
:1010F00020F81A1009EB890104EBC10B9BF874115D
:101100000BF5B476002900F083809BF86B1102295F
:1011100040F09080B0F850203178DBF8803102EB5D
:10112000C1070BF5C0725FEA484500EB470700F1C5
:101130009B80B7F80C7400256FF39F27DB1B38BF2B
:101140002B46136040F2A8805FEA486240F60F75B4
:1011500000F1B48030F8212048F2C0032A401A433D
:1011600020F82120002F40F0AA80CFE00A053FF5AB
:1011700057AF09B2B1F1FF3F3FF76EAF0188294089
:1011800080310180B0F8501094F8682101EBC20161
:1011900000EB4101B1F80C346FF39F23C4F88431A4
:1011A00093B1D4F87C1179B1B4F86E2105F052F9FD
:1011B000D4F87C01D4F884110844C4F87C0120469A
:1011C0000021FFF7E3FD206801880A053FF544AFE1
:1011D00001F44051B1F5405F3FF43EAFB0F850101C
:1011E00000F20C42535A6FF39F235352D4F87831D4
:1011F0003F2BC0F0178231F802C05F09DE064FF0C6
:10120000FF3608BF06EB53174CEA872393E200BF73
:10121000B0F85010327801EBC20100EB4101B1F897
:101220000C746FF39F27002F70D0DBF87C11BBF894
:101230006E2167E0317848F2C00330F821202A405F
:101240001A4320F8212030F82120B0F85030520401
:1012500003EBC10100EB410118D4B1F80C746FF33A
:101260009F2767BB52E000BFB7F8047400256FF3F7
:101270009F27DB1B38BF2B46136025D95FEA4862E6
:1012800040F60F7531D4CFBB40E000BFB1F8047415
:101290006FF39F2797BB39E030F8212043F60F7397
:1012A0001A404CF28003A3F500535A4020F8212045
:1012B0005FEA486240F60F757FF54CAF37B3DBF855
:1012C0007C11BBF872211DE030F8212043F60F732A
:1012D0001A404CF28003A3F500535A4020F8212015
:1012E0005FEA486240F60F75CDD530F8212048F20C
:1012F000C0032A401A4320F821203FB1DBF87C11BB
:10130000BBF870213B4605F0A5F800E00027DBF8AC
:101310008411DBE95F0239443844CBF88411CBF8FF
:101320007C011AB1DBF87801B84209D9317820463E
:10133000FFF72CFD5FEA08607FF58EAE08E000BF86
:101340002068314604F052FC5FEA08607FF584AE05
:10135000206809EB890130F81A2004EBC10302EA86
:10136000050101F5004120F81A1093F82B1003F144
:10137000280B012926D193F8341000294FF00001E1
:10138000196400F049815FEA486100F1918093F8A7
:101390002910012900F02A81002940F03D81B0F890
:1013A00050109BF80020084400EB0210B0F80C1419
:1013B0006FF39F21A0F80C14B0F80C1441F4004115
:1013C0001CE100BF5FEAC8511ED4B0F850209BF862
:1013D00000101F6C02EBC10200EB4202B2F80424C1
:1013E00000266FF39F22BF1A38BF37461F6440F2B2
:1013F0001581D96B5F6C1144D963B918596459468A
:1014000004F0F4FB28E600BFB0F850709BF8001021
:101410001A4652F8405F40F60F7A5FEA486607EBDB
:10142000C1075FD400F20C4939F817706FF39F279A
:10143000EE1B4FF0000538BF2E46166040F28E803E
:101440005FEA484208D430F821204CF2800602EAD4
:101450000A02324320F821201D4615F84C2F012A9C
:1014600040F0B2811A4652F8488F52E904E652F829
:1014700004AC06EB070C0AEB0706F04542F80CCC6F
:1014800042F8046C80F01081B8F1000F00F06C811C
:101490000027C64617602F7093F82920012A40F0D4
:1014A0000B81B0F8502009EB011121F802E07FE137
:1014B00093F82910012900F0A580002940F0AC80A4
:1014C000B0F850109BF80020084400EB0210B0F870
:1014D00004146FF39F21A0F80414B0F8041441F42D
:1014E000004197E000F2044939F817706FF39F2725
:1014F000EE1B4FF0000538BF2E46166052D95FEA4A
:10150000484208D530F821204CF2800602EA0A024F
:10151000324320F821201A4612F84C6F012E40F079
:1015200053811D4655F848EF55E904A655F8048C3B
:1015300006EB070C08EB0706D64545F80CCC45F83A
:10154000046C80F0D3804FF00008BEF1000F82F8E9
:10155000008040F0CE80BE46CDE000BF93F8292049
:10156000012A6BD0002A76D1B0F8502000EB01138D
:101570001A44B2F804346FF39F23A2F80434B2F88B
:10158000043443F40043A2F80434B0F8500009EBEB
:101590000112135A6FF39F231352135A43F400435B
:1015A00058E000BF93F82920012A5BD0002A66D1B9
:1015B000B0F8502009EB01139F5A6FF39F279F52F9
:1015C0009F5A47F400479F52B0F8502000EB01109B
:1015D0001044B0F80C246FF39F22A0F80C24B0F84C
:1015E0000C2442F40042A0F80C2448E0B0F850105B
:1015F0009BF80020084400EB02100021A0F80C1416
:101600000AE000BFB0F850109BF80020084400EB3F
:1016100002100021A0F804149BF800102046FFF7E8
:10162000ABFB19E5002B00F0858003F001078E5A13
:1016300007EB530346EA832382E000BFB0F8502053
:1016400000EB01131A440023A2F80434B0F8500050
:1016500009EB011213522046FFF78EFB5FEA484068
:1016600014D5B1E0B0F8502009EB011300279F52C8
:10167000B0F8502000EB01101044A0F80C74204684
:10168000FFF77AFB5FEA484040F19E8020689BF8B4
:1016900000104CF2800330F8212002EA0A021A43BB
:1016A00020F8212090E000BFA8EB0E05156093F80C
:1016B0002920012A3FF4F5AE002A79D1B0F8507004
:1016C00009EB0111CA5BBEF13F0F6FF39F22CA53B2
:1016D00052D35FEACE654FEA5E127D5A4FF0FF3675
:1016E00008BF06EB5E1245EA82225EE0AEEB0A0816
:1016F000D646C5F8008093F82920012A2CD0002A6C
:101700005CD1B0F8507009EB0111CA5BBEF13F0F1C
:101710006FF39F22CA533BD35FEACE654FEA5E1256
:101720007D5A4FF0FF3608BF06EB5E1245EA822273
:1017300041E000BF8B5A48F20007CFF6FF773B43EA
:101740008B52018843F60F7211404CF28002A2F5D1
:101750008052514001807FE4B0F8502009EB011124
:1017600021F802E02AE000BF00222A70BE4693F86A
:101770002920012AA0D194E6BEF1000F14D00EF06A
:1017800001027D5A02EB5E0245EA82220FE000BFB1
:10179000BEF1000F0ED00EF001027D5A02EB5E0288
:1017A00045EA822209E000BF7A5A42F400427A52A6
:1017B0005A8E04E07A5A42F400427A521A8E1FFA84
:1017C0008EF3614604F0A0FE20689BF8001040F6FE
:1017D0003F7330F8212040F60F751A4048F2C003DD
:1017E000103B5A4020F82120FFF736BC2068B0F8A3
:1017F000441021F48061A0F84410204600F03EF926
:1018000094F8A80201280DD101B0BDE8F08F00BF07
:101810002068B0F8441021F48041A0F8441001B0D1
:10182000BDE8F08F0120002584F8A80284F8245038
:101830002068002104F060FE84F8A85201B0BDE8E1
:10184000F08F00BF2068B0F8441021F40051A0F8D8
:10185000441001B0BDE8F08F2068B0F8401021F0CE
:101860000401A0F84010B0F8401021F00801A0F8E1
:101870004010204600F014F92068B0F8441021F41C
:101880008051A0F8441001B0BDE8F08F2168B1F894
:1018900000C0B1F804E0B1F808808F890E8A8D8A03
:1018A000088B8A8BB1F8403043F00103A1F8403037
:1018B000B1F8403023F00103A1F84030B1F84430D2
:1018C0005B050CD4B1F844305B055CBFB1F8443023
:1018D0005FEA435303D4B1F844305B05EED5B1F869
:1018E000443023F48063A1F84430A1F800C0A1F88B
:1018F00004E0A1F808808F810E828D8208838A839C
:10190000B1F8400040F00800A1F84000B1F84400F0
:1019100020F40060A1F84400B1F8400040F0040257
:101920002046A1F8402001B0BDE8F04F00F0F6B825
:101930002168B1F8440020F400722046A1F8442048
:1019400001B0BDE8F04F00F0AFB80000F0B585B0D1
:1019500000285ED0044690F8A90228B9002084F837
:10196000A802204600F066F8032084F8A902206847
:1019700004F0D8F894E82F50D4E907678DE8205098
:10198000CDE9036704F048F800283FD12068002122
:10199000002504F0AFFD616841B30120002300225F
:1019A00003EB830304EBC30787F828200132D3B28B
:1019B000994287F8290087F82B50C7E90E553D64F6
:1019C000EED800200023002203EB830304EBC307BF
:1019D00087F868210132D3B2994287F8690187F804
:1019E0006B01C7E95E00C7F88001EDD804F1080774
:1019F000D4E9056520688CCFD4E907CECDE900761F
:101A000002AE86E8205004F07FF838B1022084F856
:101A1000A9020125284605B0F0BD00BF0025012020
:101A200084F8245084F8A902206804F06BF8284652
:101A300005B0F0BD80B582B0006845F60041C4F243
:101A4000000188421CBF02B080BD41F21C00C4F2FC
:101A500002000168002241F40001016000680021D9
:101A600000F40000019001981420FFF729F91420D8
:101A700002B0BDE88040FFF70FB9000010B5044682
:101A80008068022818BFFEF703FFD4F8EC0201219A
:101A900003F09EFBD4F8EC02BDE8104003F056BB07
:101AA000D0F8EC0203F07CBBD0F8EC0203F082BB70
:101AB00010B5044690F8A802012804BF022010BD0A
:101AC000012084F8A80284F82410206804F014FD92
:101AD000002084F8A80210BDD0F8EC2200F52C718B
:101AE000104603F08BBB000010B5044690F8A80226
:101AF000012804BF022010BD2068012184F8A8122B
:101B000004F094FC20460121FFF734F9206803F02B
:101B1000F7FF002084F8A80210BD000010B50446AD
:101B2000D0F8EC0203F0C0FBA069002808BF10BD8C
:101B30004EF61050CEF20000016841F0060101603F
:101B400010BD00002DE9F04182B00446007841F25A
:101B50001C06C007C4F202064AD0306810F0805854
:101B600008D1306840F080503060306800F080501C
:101B70000190019847F20007C4F200073868C005D9
:101B800012D4386840F480703860FFF717F80546C3
:101B90003868C00508D4FFF711F8401B6428F7D94E
:101BA000032002B0BDE8F081706810F4407012D0DC
:101BB000616801F4407188420DD0706840F2404283
:101BC000C4F24222012320F4407113600023C007B5
:101BD000136071602AD17068616820F44070084316
:101BE000B8F1000F706003D1306820F08050306091
:101BF0002068810707D556F8181CA26821F44041D7
:101C0000114346F8181CC00604D4002002B0BDE8F9
:101C1000F08100BF56F8180CE16820F480000843FA
:101C200046F8180C002002B0BDE8F081FEF7C6FFB0
:101C3000054641F2883700BF70688007CBD4FEF7B5
:101C4000BDFF401BB8424FF00300F5D9EBE70000A1
:101C50002DE9F04381B0002800F0878042F20008AF
:101C6000C4F202080446D8F800000D4600F0070050
:101C700088420CD2D8F8000020F007002843C8F8AA
:101C80000000D8F8000000F00700A8426DD12068DD
:101C900041F204098107C4F2020917D5410705D5AD
:101CA000D9F8001041F4E061C9F80010010705D52A
:101CB000D9F8001041F46051C9F80010D9F80010AB
:101CC000A26821F0F0011143C9F80010C00743D108
:101CD000D8F8000000F00700A8420CD9D8F800009E
:101CE00020F007002843C8F80000D8F8000000F0F2
:101CF0000700A84239D12068410707D5D9F800105C
:101D0000E26821F4E0611143C9F80010000708D52A
:101D1000D9F80000216920F4605040EAC100C9F8F8
:101D20000000D9F8001042F2004001F00C02042A31
:101D3000C0F2F40058D0082A44D149F29A63C1F3A2
:101D40008342C0F600039A5CC90341D440F60010F8
:101D5000C0F23D00504347E0606802280AD00128E5
:101D60002AD159F8041C890308D4012001B0BDE828
:101D7000F08300BF59F8041C8901F6D5D9F800108A
:101D800021F003010843C9F80000FEF717FF0646DB
:101D900041F28837D9F80000616800F00C00B0EB20
:101DA000810F95D0FEF70AFF801BB842F2D90320BD
:101DB00001B0BDE8F08300BF59F8041C8907D4D5F1
:101DC000DCE700BF41F20020C0F27A000CE000BF67
:101DD000D9F8001049F29853C1F34041C0F600030E
:101DE000595C5043B0FBF1F0D9F8001049F20052B1
:101DF000C1F30311C0F60002515C40F22C0220FA3C
:101E000001F140F20800C2F200000068C2F20002D4
:101E10001160FEF7FBFE002001B0BDE8F08300007A
:101E200040F22C0041F20401C2F20000C4F20201AF
:101E30000068096849F21052C1F30221C0F600029D
:101E4000515CC8407047000040F22C0041F2040190
:101E5000C2F20000C4F202010068096849F210529F
:101E6000C1F3C221C0F60002515CC84070470000B7
:101E70002DE9F04182B0002868D00446007841F294
:101E80000006C007C4F2020625D0706800F00C00FE
:101E900004281BD0706800F00C00082802D170687C
:101EA000C00313D46068002800F06881B0F5A02F4B
:101EB00000F07C81B0F5803F00F07C81306820F438
:101EC00080303060306820F4802076E13068800314
:101ED00001D56068D0B32078800718D5706810F0FD
:101EE0000C0F07D0706800F00C0008286ED17068E5
:101EF000C0036BD43068800702D52069012825D142
:101F00003068616920F0F80040EAC1003060207854
:101F100000071FD42078400732D4E56995B1706876
:101F200000F00C00082840F08F80012D0ED0706862
:101F3000216A00F480328A4208D1616A00F470108C
:101F4000884203D1002002B0BDE8F081012002B038
:101F5000BDE8F081A069002862D00020C4F24220D0
:101F60000121C0F88014FEF729FE0546706A80073B
:101F700000F18C80FEF722FE401B0228F6D92AE1F0
:101F8000F06910F0805808D1F06940F08050F0619D
:101F9000F06900F080500090009847F20007C4F20A
:101FA00000073868C00529D4386840F4807038606C
:101FB000FEF704FE054600BF3868C0051ED4FEF7D4
:101FC000FDFD401B6428F7D905E100BF206900280A
:101FD00040F20000C4F2422000F082800121016042
:101FE000FEF7ECFD054600BF306880073FF588AF7F
:101FF000FEF7E4FD401B0228F6D9ECE0E06800287B
:1020000000F08080052800F09780012800F098807B
:10201000306A20F001003062306A20F0040092E063
:102020000020C4F242200021C0F88014FEF7C6FD53
:10203000054600BF706A80077FF56CAFFEF7BEFDF6
:10204000401B0228F6D9C6E00027C4F24227002030
:102050003866FEF7B3FD022D05460BD130688001CE
:1020600040F1BE80FEF7AAFD401B02284FF003009E
:10207000F4D968E7306880017FF564AFFEF79EFD14
:10208000401B02284FF00300F4D95CE740F22C001B
:10209000C2F20000006844F6D351C1F26201A0FB15
:1020A0000101480A019000BF00BF0198411E0028AD
:1020B00001913FF42FAF00BF0198411E002801910C
:1020C0003FF428AF00BF0198411E002801913FF462
:1020D00021AF00BF0198411E00280191E4D119E70A
:1020E00000210160FEF76AFD054600BF30688007E9
:1020F0007FF50DAFFEF762FD401B02284FF0030095
:10210000F4D920E7306A20F001003062306A20F014
:1021100004003062FEF752FD054641F2883700BFE9
:10212000306A800720D5FEF749FD401BB8424FF0CA
:102130000300F5D907E700BF306A40F004003062C1
:10214000306A40F001003062FEF738FD054641F28A
:10215000883700BF306A800706D4FEF72FFD401B8A
:10216000B842F7D937E000BFB8F1000F7FF4D5AE21
:10217000F06920F08050F061CFE600BF306820F4B5
:1021800080303060306820F480203060FEF716FD2B
:10219000054600BF306880037FF59DAEFEF70EFD5B
:1021A000401B64284FF00300F4D9CCE6306840F4BB
:1021B00080203060306840F480303060FEF7FEFCF4
:1021C000054600BF306880033FF585AEFEF7F6FC9C
:1021D000401B6428F6D9032002B0BDE8F08100BF9F
:1021E000206AB0F5803F05D17168A26821F4003102
:1021F000114371607168626A21F4741111430843DC
:10220000706001203866FEF7D9FC04463068800112
:102210003FF598AEFEF7D2FC001B02284FF00300FA
:10222000F4D990E690F851007047000070B538B1CD
:102230000446406A30B10020206104F1140007E038
:10224000012070BD6068B0F5827F03D004F11C00EE
:10225000002101600026A66294F8510020B92046B2
:1022600084F8506000F038F8022084F8510094E8B7
:10227000071001F48271036802F4044223F0400362
:102280000360236911440CF40062114403F002025C
:102290006369114403F00102A369E569114403F481
:1022A0000072114405F03802256A114405F08002DD
:1022B000A56A114305F4005211430160042101EAAB
:1022C00013414160C16921F40061C161012066656B
:1022D00084F85100304670BD70B586B040F60004F9
:1022E000C4F20104006804F52051002688420496D7
:1022F00002D006B070BD00BF41F21800C4F2020067
:10230000016802AD41F480510160016801F480511F
:1023100001910199016841F00401016000682946BA
:1023200000F0040001900198A02002900220039088
:10233000032005902046FEF72DFB4020CDE9020644
:10234000204629460496FEF725FB06B070BD000026
:102350002DE9F04182B0044690F85000012803D1E5
:10236000022002B0BDE8F08101201D4616460F464E
:1023700084F85000FEF722FC94F8511001290DD189
:102380008046002F4FF0010018BF002E0ED1002113
:1023900084F8501002B0BDE8F08100BF0220002197
:1023A00084F8501002B0BDE8F08100BF0320002186
:1023B00084F8510061652763A686E686A163A1873C
:1023C000E187A0682164B0F5004F2068616407D1FF
:1023D000016821F040010160016841F48041016021
:1023E0000168490603D4016841F040010160616859
:1023F000731EE268B1FA81F1B3FA83F349095B090C
:10240000B2F5006F41EA03013CD131B137F8021B4C
:10241000C1602763E08E0138E086E08E00286BD033
:10242000681C0CD11DE000BF216B31F8022BC2608B
:102430002163E08E0138E086E08E00285CD02068C1
:1024400081688907F0D4FEF7B9FBA0EB0800A84229
:10245000F2D3032071E000BFFEF7B0FBE08E00284E
:102460004AD0206881688907F6D5216B31F8022BA4
:10247000C2602163E08E0138E086E08E0028F0D152
:102480003AE000BF39B139780173206B0130206325
:10249000E08E0138E086E08E70B3681C0BD11BE043
:1024A000216B09780173206B01302063E08E0138C5
:1024B000E086E08E00B3206881688907F0D4FEF7DB
:1024C0007DFBA0EB0800A842F3D3032035E000BF5A
:1024D000FEF774FBE08E78B1206881688907F7D534
:1024E000216B09780173206B01302063E08E013885
:1024F000E086E08E0028EFD1204680212A46434620
:1025000002F0DAF828B1606D40F02000606520200C
:102510006065A06838B9002001902068C168019109
:10252000806801900198606D30B10120002184F82D
:10253000501002B0BDE8F0810020012184F8511054
:10254000002184F8501002B0BDE8F0812DE9F0437D
:1025500081B0044690F85000012803D1022001B058
:10256000BDE8F08301201E4615460F4684F8500052
:10257000FEF724FB94F851108146012912D06068BF
:10258000B0F5827F40F0A480A06800284FF00200E0
:1025900008BF042906D0002184F8501001B0BDE81E
:1025A000F08300BF002F4FF0010018BF002DF2D0C4
:1025B000002EF0D094F85100002104281CBF052003
:1025C00084F851006165A563E687A6872763E686E0
:1025D0002068A686216461640168490603D4016805
:1025E00041F0400101606168731EE268B1FA81F157
:1025F000B3FA83F3DDF8208049095B09B2F5006F77
:1026000041EA03016CD131B137F8021BC160276385
:10261000E08E0138E086012518F1010031D101E09A
:10262000FEF7CCFAE08E18B9E08F002800F0C080E9
:102630002068816889070CD5E18E51B1012D08D140
:10264000216B002531F8022BC2602163E18E013934
:10265000E1868168C907E3D0E18F0029E0D0C06836
:10266000A16B012521F8020BA163E08F0138E087FF
:10267000D6E700BFFEF7A2FAA0EB0900404580F0C4
:10268000AB80E08E18B9E08F002800F091802068C0
:10269000816889070CD5E18E51B1012D08D1216BDC
:1026A000002531F8022BC2602163E18E0139E186F9
:1026B0008168C907DED0E18F0029DBD0C068A16B3B
:1026C000012521F8020BA163E08F0138E087D1E7F3
:1026D0000220002184F8501001B0BDE8F08300BF53
:1026E00039B139780173206B01302063E08E0138F5
:1026F000E086012518F1010032D101E0FEF75EFA13
:10270000E08E10B9E08F002852D0206881688907D8
:102710000ED5E18E61B1012D0AD1216B002509781A
:102720000173216B206801312163E18E0139E1865B
:102730008168C907E2D0E18F0029DFD0C068A16BB2
:1027400001250870A06B0130A063E08F0138E0879D
:10275000D4E700BFFEF732FAA0EB090040453BD2B8
:10276000E08E08B9E08F18B32068816889070ED51C
:10277000E18E61B1012D0AD1216B00250978017329
:10278000216B206801312163E18E0139E186816886
:10279000C907DFD0E18F0029DCD0C068A16B01251B
:1027A0000870A06B0130A063E08F0138E087D1E7AB
:1027B0002046802142464B4601F07EFFB0B1606D5D
:1027C00040F020006065202060650120002184F831
:1027D000501001B0BDE8F083012084F851000320BF
:1027E000002184F8501001B0BDE8F083A06838B92A
:1027F000002000902068C1680091806800900098D7
:10280000606D00284FF0010004BF84F851000020E3
:10281000002184F8501001B0BDE8F083411E002073
:10282000B0EB116F1CBF012070474EF21002CEF2C8
:10283000000251604EF62351CEF20001F0230B70DE
:1028400007219060116070477047000070470000DA
:1028500010B590F83C20012A4FF0020233D080F8E6
:102860003D200268D2F804E0D2F808C00C682EF0CF
:102870007003234340F2FF74C4F20004A242536089
:102880000ADCB2F1804F13D040F20043C4F20003DF
:102890009A420DD011E000BF42F60043C4F201039A
:1028A0009A4205D040F60003C4F200039A4204D1D4
:1028B00049682CF08003194391600121002280F8BF
:1028C0003D1080F83C20104610BD0000002804BFD9
:1028D0000120704710B5044690F83D0028B900204B
:1028E00084F83C00204600F067F8022084F83D00A0
:1028F000206840F2FF730268C4F2000342F6004C05
:102900009842C4F2010C15DCB0F1804F1AD040F2AD
:102910000041C4F20001884214D0984218DCB0F1A2
:10292000804F1DD040F20041C4F20001884217D010
:102930001AE000BF604505D040F60001C4F2000176
:102940008842EAD1A16822F070020A439842E6DD8B
:10295000604505D040F60001C4F20001884203D171
:10296000216922F440720A43A36922F08001D4F85D
:1029700004E0E268194360450160C262C0F828E0E3
:1029800002D16169CCF8301001214161002084F846
:10299000461084F83E1084F83F1084F8401084F804
:1029A000411084F8421084F8431084F8441084F8ED
:1029B000451084F83D1010BD80B582B0006840F627
:1029C0000001C4F2000188421AD0B0F1804F24D136
:1029D00041F21C00C4F202000168002241F0010132
:1029E00001600068002100F00100019001981C20A6
:1029F000FEF766F91C2002B0BDE88040FEF74CB936
:102A000041F21C00C4F20200016841F004010160BF
:102A1000006800F004000090009802B080BD000043
:102A200090F83D1001291CBF01207047022180F859
:102A30003D10006840F2FF71C4F20001884209DCD9
:102A4000B0F1804F12D040F20041C4F20001884240
:102A50000CD012E042F60041C4F20101884205D0D8
:102A600040F60001C4F20001884206D1816801F0FD
:102A70000701062904BF00207047016841F00101E9
:102A8000016000207047000080B590F83C20012ACA
:102A90004FF0020200F0C28080F83D20D0F800C064
:102AA0004FF67772DCF8083023EA0202CCF80820EF
:102AB0000B684F2B28DC1F2B44DD202B45D0302BFF
:102AC00043D0402B40F0AC80D1F804E0C968DCF87A
:102AD0002030DCF8202022F00102CCF82020DCF8A5
:102AE000182022F0F00242EA011123F00A0242EA21
:102AF0000E02CCF81810CCF82020DCF8081041F0B9
:102B0000470121F0300180E06F2B27DDB3F5005F36
:102B100048D0B3F5805F7AD0702B40F08180D1E946
:102B200001E3C968DCF8082043EA0E0322F47F427F
:102B300043EA01211143CCF80810DCF8081041F0F9
:102B4000770162E00BB1102B6AD1DCF8081021F09C
:102B50007001194341F0070157E000BF502B35D0F9
:102B6000602B5DD1D1F804E0C968DCF82030DCF8D6
:102B7000202022F01002CCF82020DCF8182022F4CB
:102B8000704242EA013123F0A00242EA0E12CCF870
:102B90001810CCF82020DCF8081041F0670121F073
:102BA000100132E0D1E901E3C968DCF8082043EA0A
:102BB0000E0322F47F4243EA01211143CCF80810AE
:102BC000DCF8081041F480411FE000BFD1F804E0B8
:102BD000C968DCF82030DCF8202022F00102CCF8B3
:102BE0002020DCF8182022F0F00242EA011123F044
:102BF0000A0242EA0E02CCF81810CCF82020DCF8C9
:102C0000081041F0570121F02001CCF808100022F3
:102C1000012180F83D10002180F83C10104680BD55
:102C20000122F5E77047000010B501680446086905
:102C3000800744BFC8685FEA807039D408694007DC
:102C400044BFC8685FEA40703ED40869000744BFCB
:102C5000C8685FEA007045D40869C00644BFC86808
:102C60005FEAC0604AD40869C0071CBFC8685FEA51
:102C7000C07051D10869000644BFC8685FEA0060AF
:102C800052D40869400644BFC8685FEA406053D424
:102C90000869800646BFC8685FEA806010BD6FF0B3
:102CA000200220460A61BDE81040FFF7CFBD00BFFB
:102CB0006FF002000861012020778869800743D007
:102CC0002046FFF7AFFF45E06FF0040008610220E7
:102CD0002077886910F4407F40D02046FFF7A2FF9C
:102CE00042E000BF6FF00800086104202077C86947
:102CF00080073DD02046FFF795FF3FE06FF01000C2
:102D0000086108202077C86910F4407F3AD0204637
:102D1000FFF788FF3CE000BF6FF00100086120462C
:102D200000F03EF82168A5E76FF0800008612046BA
:102D3000FFF78AFD2168A4E76FF040000861204694
:102D400000F040F82168A3E7204600F025F820466F
:102D500000F024F82168002020776FE7204600F07B
:102D60001BF8204600F01AF82168002020776CE755
:102D7000204600F011F8204600F010F821680020ED
:102D8000207769E7204600F007F8204600F006F8B3
:102D900021680020207766E7704700007047000038
:102DA00043F65C71C2F2000100680968884218BFEE
:102DB000704740F2FC10C2F20000416801314160EE
:102DC0007047000070470000002804BF01207047D2
:102DD00010B5044690F8410028B9002084F840005E
:102DE000204600F063F8242084F841002068D4E9EC
:102DF0000212C36823F40053C360036923F44053F1
:102E00001A430261D4E904231143C268194341F211
:102E10000C639A431143C1604169A26921F4407176
:102E2000114343F60002C4F201029042416103D013
:102E3000FEF7F6FF02E000BFFFF706F8626819210F
:102E400048439100B0FBF1F048F21F51C5F2EB117D
:102E5000A0FB01235A094FF69C73C0F6FF7302FBD7
:102E60000300322303EB0010A0FB0101F02303EA6F
:102E70005113206803EB0212C1F343111144816026
:102E8000016921F490410161416921F02A01416108
:102E9000C16841F40051C16000202021606484F8C1
:102EA000411084F84210606310BD000070B586B018
:102EB00040F60004C4F201040068A4F54441002671
:102EC0008842049602D006B070BD00BF41F21800DF
:102ED000C4F20200416802AD41F400314160416832
:102EE00001F4003101910199016841F00401016090
:102EF0000068294600F00400019001980420029027
:102F000002200390032005902046FDF743FD082092
:102F1000CDE90206204629460496FDF73BFD06B0A2
:102F200070BD00002DE9F04381B0044690F84100E7
:102F3000202840F0B180884600294FF0010000F0C1
:102F4000D6801646002A00F0D2800020606421203E
:102F50001D4684F84100FDF731FEA684E684A16891
:102F60000646B1F5805F03D12069002800F0988003
:102F700047464FF00008E18C2068002900F0968059
:102F800005F101090BE000BF47B317F8011B4160D1
:102F9000E18C0139E184E18C002900F0878001682F
:102FA0000906F1D4B9F1000F0AD0EDB1FDF706FE24
:102FB000801BA84218D8206801680906F6D5E3E707
:102FC00001680906E0D4016809065CBF01685FEA90
:102FD0000161D9D401680906F2D5D5E738F8021B9A
:102FE00000276FF35F21D2E7206850E8030F2168C4
:102FF00020F4D07041E80302BAB3206850E8030F10
:10300000216820F4D07041E8030272B3206850E8D0
:10301000030F216820F4D07041E803022AB320682E
:1030200050E8030F216820F4D07041E80302002A21
:10303000DAD11AE0206850E8050F216820F001007D
:1030400041E80502DAB1206850E8050F216820F058
:10305000010041E8050292B1206850E8050F21689F
:1030600020F0010041E805024AB1206850E8050F50
:10307000216820F0010041E80502002ADAD1202071
:1030800084F8410084F84200002084F840000320C6
:1030900001B0BDE8F08300BF022001B0BDE8F083BD
:1030A0000027E18C206800297FF46AAF0168490697
:1030B00019D4FDB1691C0DD10168490613D401680A
:1030C00049065CBF01685FEA41610CD401684906AA
:1030D000F2D508E0FDF772FD801BA8420AD82068EF
:1030E00000684006F6D5202084F84100002001B099
:1030F000BDE8F083206850E8030F216820F4D07009
:1031000041E80302002A3ED0206850E8030F2168FE
:1031100020F4D07041E80302AAB3206850E8030FFE
:10312000216820F4D07041E8030262B3206850E8BF
:10313000030F216820F4D07041E80302002AD9D19E
:1031400021E000BF206850E8050F216820F0010051
:1031500041E80502002A3FF492AF206850E8050FCD
:10316000216820F0010041E80502002A3FF487AF02
:10317000206850E8050F216820F0010041E80502B1
:10318000002A3FF47CAF206850E8050F216820F04A
:10319000010041E80502002AD4D170E7FEE70000F3
:1031A00010B540F25824C2F2000440F28410611CB1
:1031B000C2F20000FDF772FB207010BD80B543F62F
:1031C000501040F20C01C2F20000C2F200010022D5
:1031D00001F054FE002818BFFDF75AFB43F65010CB
:1031E00040F23001C2F20000C2F2000102F084F8A5
:1031F000002818BFFDF74CFB43F6501040F2541165
:10320000C2F20000C2F2000101F0DEFB002818BF8C
:10321000FDF73EFB43F65010C2F2000002F082F8C8
:10322000002808BF80BDBDE88040FDF731BB00002D
:10323000FEE70000FEE70000704700002DE9F04FB8
:1032400083B040F60008C4F2010840461021012274
:10325000FDF7AEFC43F60475FF20C2F200058DF8C1
:10326000070000BF2846FEF7DDFF0128FAD143F62C
:103270000475C2F200050DF10701284601224FF442
:103280007A73FFF765F8FF208DF807002846FEF7F0
:10329000C9FF0128FAD143F60475C2F200050DF109
:1032A0000701284601224FF47A73FFF751F8FF20F7
:1032B0008DF807002846FEF7B5FF0128FAD143F63E
:1032C0000475C2F200050DF10701284601224FF4F2
:1032D0007A73FFF73DF8FF208DF807002846FEF7C8
:1032E000A1FF0128FAD143F60475C2F200050DF1E1
:1032F0000701284601224FF47A73FFF729F8FF20CF
:103300008DF807002846FEF78DFF0128FAD143F615
:103310000475C2F200050DF10701284601224FF4A1
:103320007A73FFF715F8FF208DF807002846FEF79F
:1033300079FF0128FAD143F60475C2F200050DF1B8
:103340000701284601224FF47A73FFF701F8FF20A6
:103350008DF807002846FEF765FF0128FAD143F6ED
:103360000475C2F200050DF10701284601224FF451
:103370007A73FEF7EDFFFF208DF807002846FEF771
:1033800051FF0128FAD143F60475C2F200050DF190
:103390000701284601224FF47A73FEF7D9FFFF2078
:1033A0008DF807002846FEF73DFF0128FAD143F6C5
:1033B0000475C2F200050DF10701284601224FF401
:1033C0007A73FEF7C5FFFF208DF807002846FEF749
:1033D00029FF0128FAD143F60475C2F200050DF168
:1033E0000701284601224FF47A73FEF7B1FF4046E9
:1033F00010210022FDF7DCFB40208DF8080000BF03
:103400002846FEF70FFF0128FAD143F60475C2F2F1
:10341000000502A9284601224FF47A73FEF798FFAF
:1034200000208DF8080000BF2846FEF7FBFE0128AB
:10343000FAD143F60475C2F2000502A9284601221A
:103440004FF47A73FEF784FF00208DF8080000BF68
:103450002846FEF7E7FE0128FAD143F60475C2F2CA
:10346000000502A9284601224FF47A73FEF770FF87
:1034700000208DF8080000BF2846FEF7D3FE012883
:10348000FAD143F60475C2F2000502A928460122CA
:103490004FF47A73FEF75CFF00208DF8080000BF40
:1034A0002846FEF7BFFE0128FAD143F60475C2F2A2
:1034B000000502A9284601224FF47A73FEF748FF5F
:1034C00095208DF8080000BF2846FEF7ABFE0128C6
:1034D000FAD143F60475C2F2000502A9284601227A
:1034E0004FF47A734FF47A79FEF732FF41F6FF74A6
:1034F0004FF0FF0A00260DF10A0B0DF1090700BF7E
:103500008DF80AA08DF809602846FEF78BFE012889
:10351000FAD1284659463A460123CDF80090FFF7E4
:1035200015F89DF80910013C46F10000012918BF6B
:103530000028E5D1404610210122FDF739FB43F672
:103540000474FF20C2F200048DF80B002046FEF741
:1035500069FE0128FAD143F60470C2F200000DF1B1
:103560000B0101224FF47A730124FEF7F1FE40F2C1
:10357000F810C2F20000447003B0BDE8F08F000004
:103580002DE9F04782B040F24E28C2F20008322006
:1035900088F80000FF2043F604748DF80500002031
:1035A000C2F200048DF804002046FEF73BFE01281D
:1035B000FAD143F60474C2F200044FF47A790DF1A3
:1035C000050101AA20460123CDF80090FEF7BEFFB9
:1035D0004FF0FF0A00270DF107050DF1060600BFA9
:1035E0008DF807A08DF806702046FEF71BFE012817
:1035F000FAD12046294632460123CDF80090FEF745
:10360000A5FF9DF80600FF2806D098F800100029B5
:10361000E6D102B0BDE8F087FF2002B0BDE8F08738
:103620002DE9F04F85B00C4640F24D2143F604766B
:103630008246C2F200010A20FF254FF0000BC2F2C1
:1036400000064FF47A790DF10B080DF10A070870A6
:103650008DF80B508DF80AB03046FEF7E3FD0128D7
:10366000FAD1304641463A460123CDF80090FEF7A4
:103670006DFF9DF80A00FF2808D140F24D20C2F2EC
:10368000000000780028E3D17CE000BFFE2879D15B
:1036900043F60476FF274FF00008C2F200064FF40D
:1036A0007A790DF10E0B00BF8DF80D708DF80C803E
:1036B0003046FEF7B7FD0128FAD130460DF10D0175
:1036C00003AA0123CDF80090FEF740FF9DF80C00FF
:1036D0008DF80F708AF800008DF80E803046FEF7E6
:1036E000A1FD0128FAD130460DF10F015A46012300
:1036F0000AF10205CDF80090FEF728FF9DF80E00B4
:10370000023C8AF80100AA46CED1FF2043F6047499
:103710008DF811000020C2F200048DF8100000BFE7
:103720002046FEF77FFD0128FAD143F60474C2F269
:1037300000044FF47A770DF1110104AA2046012309
:103740000097FEF703FFFF208DF8130000208DF88F
:10375000120000BF2046FEF765FD0128FAD14FF4A4
:103760007A70009043F60470C2F200000DF113016C
:103770000DF1120201230124FEF7E8FE204605B0F8
:10378000BDE8F08F0024204605B0BDE8F08F0000B2
:103790002DE9F04F87B040F24E2A0290C2F2000AA3
:1037A00032208AF80000FF2043F6047489468DF821
:1037B0000F000020C2F200048DF80E002046FEF734
:1037C00031FD0128FAD143F60476C2F200064FF427
:1037D0007A7B0DF10F010DF10E0230460123CDF879
:1037E00000B0FEF7B3FEFF254FF000080DF1110702
:1037F00004AC00BF8DF811508DF810803046FEF7F4
:1038000011FD0128FAD13046394622460123CDF870
:1038100000B0FEF79BFE9DF81000FF2808D09AF834
:1038200000000028E6D1FF20C0B207B0BDE8F08F4D
:10383000029D43F60474C2F200048DF8125000BFDA
:103840002046FEF7EFFC0128FAD143F60474C2F2D9
:1038500000040DF11201204601224FF47A73FEF7A5
:1038600077FD4FEA19608DF8130000BF2046FEF780
:10387000D9FC0128FAD143F60474C2F200040DF118
:103880001301204601224FF47A73FEF761FD4FEADF
:1038900019408DF8140000BF2046FEF7C3FC012834
:1038A000FAD143F60474C2F2000405A920460122AD
:1038B0004FF47A73FEF74CFD4FEA19208DF815008E
:1038C0002046FEF7AFFC0128FAD143F60474C2F299
:1038D00000040DF11501204601224FF47A73FEF722
:1038E00037FD8DF8169000BF2046FEF79BFC01289F
:1038F000FAD143F60474C2F200040DF11601204619
:1039000001224FF47A73FEF723FD0020402D08BFFB
:103910006FF06A00482D08BF6FF078008DF817002F
:103920002046FEF77FFC0128FAD143F60470C2F26C
:1039300000000DF1170101224FF47A73FEF708FD24
:103940004C2D1BD1FF2043F604748DF81900002084
:10395000C2F200048DF818002046FEF763FC01282F
:10396000FAD143F604704FF47A77C2F200000DF1F9
:10397000190106AA01230097FEF7E8FDFF2043F690
:1039800004748DF81B000020C2F200048DF81A00A8
:103990002046FEF747FC0128FAD143F604704FF4A5
:1039A0007A77C2F200000DF11B010DF11A0201231A
:1039B0000097FEF7CBFD9DF91A00B0F1FF3F3FF7EE
:1039C00033AFFF2043F604748DF81B000020C2F2D1
:1039D00000048DF81A0000BF2046FEF723FC0128E2
:1039E000FAD143F604704FF47A77C2F200000DF179
:1039F0001B010DF11A0201230097FEF7A7FD9DF9A7
:103A00001A00B0F1FF3F3FF70FAFFF2043F60474F9
:103A10008DF81B000020C2F200048DF81A0000BFD0
:103A20002046FEF7FFFB0128FAD143F604704FF45D
:103A30007A77C2F200000DF11B010DF11A02012389
:103A40000097FEF783FD9DF91A00B0F1FF3F3FF7A5
:103A5000EBAEFF2043F604748DF81B000020C2F289
:103A600000048DF81A0000BF2046FEF7DBFB01289A
:103A7000FAD143F604704FF47A77C2F200000DF1E8
:103A80001B010DF11A0201230097FEF75FFD9DF95E
:103A90001A00B0F1FF3F3FF7C7AEFF2043F60474B2
:103AA0008DF81B000020C2F200048DF81A0000BF40
:103AB0002046FEF7B7FB0128FAD143F604704FF415
:103AC0007A77C2F200000DF11B010DF11A020123F9
:103AD0000097FEF73BFD9DF91A00B0F1FF3F3FF75D
:103AE000A3AEFF2043F604748DF81B000020C2F241
:103AF00000048DF81A002046FEF794FB0128FAD145
:103B000043F604704FF47A77C2F200000DF11B0106
:103B10000DF11A0201230097FEF718FD9DF91A0016
:103B2000B0F1FF3F3FF780AEFF2043F604748DF8FD
:103B30001B000020C2F200048DF81A002046FEF798
:103B400071FB0128FAD143F604704FF47A77C2F280
:103B500000000DF11B010DF11A0201230097FEF781
:103B6000F5FC9DF91A00B0F1FF3F3FF75DAEFF2075
:103B700043F604748DF81B000020C2F200048DF897
:103B80001A002046FEF74EFB0128FAD143F60470D6
:103B90004FF47A77C2F200000DF11B010DF11A0209
:103BA00001230097FEF7D2FC9DF91A00B0F1FF3F08
:103BB0003FF73AAEFF2043F604748DF81B00002057
:103BC000C2F200048DF81A002046FEF72BFB0128F4
:103BD000FAD143F604704FF47A77C2F200000DF187
:103BE0001B010DF11A0201230097FEF7AFFC9DF9AE
:103BF0001A00B0F1FF3F3FF717AEFF2043F6047401
:103C00008DF81B000020C2F200048DF81A00204637
:103C1000FEF708FB0128FAD143F604704FF47A77D7
:103C2000C2F200000DF11B010DF11A0201230097F1
:103C3000FEF78CFC9DF81A00C0B207B0BDE8F08F0B
:103C40002DE9F04F87B040F24E290446C2F2000938
:103C50003220029189F80000FF2043F604758DF8A8
:103C60000E000020C2F200058DF80D002846FEF778
:103C7000D9FA0128FAD143F60476C2F200064FF4CD
:103C80007A7A0DF10E010DF10D0230460123CDF8C7
:103C900000A0FEF75BFC4FF0FF0B4FF0000804AFF5
:103CA0000DF10F058DF810B08DF80F803046FEF73E
:103CB000B9FA0128FAD1304639462A460123CDF80F
:103CC00000A0FEF743FC9DF80F00FF2804D099F8F0
:103CD00000000028E6D119E0029E43F60475C2F206
:103CE00000058DF8116000BF2846FEF79BFA0128F9
:103CF000FAD143F60470C2F200000DF11101012265
:103D00004FF47A73FEF724FBFD2E03D1002007B099
:103D1000BDE8F08F43F604750026C2F200050DF1F0
:103D200012080DF1130700BF20788DF8120000BFB4
:103D30002846FEF777FA0128FAD1284641460122A3
:103D40004FF47A73FEF704FB60788DF8130000BF20
:103D50002846FEF767FA0128FAD12846394601229B
:103D60004FF47A730234FEF7F3FA013E3006DBD1EA
:103D7000FF2043F604748DF815000020C2F2000401
:103D80008DF814002046FEF74DFA0128FAD143F6CB
:103D90000474C2F200044FF47A770DF1150105AAFC
:103DA000204601230097FEF7D1FBFF208DF8170076
:103DB00000208DF8160000BF2046FEF733FA0128D8
:103DC000FAD143F60474C2F200044FF47A780DF18C
:103DD00017010DF1160220460123CDF80080FEF7F1
:103DE000B5FB4FF000094FF0FF0A0DF1190B06AEBD
:103DF000002500BF8DF819A08DF818902046FEF719
:103E000011FA0128FAD12046594632460123CDF84D
:103E10000080FEF79BFB9DF8180000F01F07052FA0
:103E200003D0402D05F10105E4D343F604744FF0AF
:103E3000FF084FF00009C2F200044FF47A7A0DF146
:103E40001B050DF11A0600BF8DF81B808DF81A9026
:103E50002046FEF7E7F90128FAD1204629463246E6
:103E60000123CDF800A0FEF771FB9DF81A00002891
:103E7000EAD0781FB0FA80F0400907B0BDE8F08FB3
:103E800000281CBF012070472DE9F04383B040F2A9
:103E90002806C2F200063078800700F1878140F6DC
:103EA0000009C4F20109FFF7C9F9484610210022B0
:103EB0004FF00008FCF77CFE40200021FFF768FC73
:103EC00001284FF0000540F0468140F24D27C2F234
:103ED00000076420387048204FF4D571FFF758FC74
:103EE000012840F00581FF2043F604758DF8070096
:103EF0000020C2F200058DF8060000BF2846FEF73C
:103F000091F90128FAD143F60475C2F200054FF485
:103F10007A740DF107010DF1060228460123009481
:103F2000FEF714FBFF208DF8070000208DF8060037
:103F30002846FEF777F90128FAD143F60475C2F254
:103F400000054FF47A740DF107010DF106022846C1
:103F500001230094FEF7FAFAFF208DF807000020F5
:103F60008DF806002846FEF75DF90128FAD143F6E0
:103F70000475C2F200054FF47A740DF107010DF1DA
:103F80000602284601230094FEF7E0FA9DF8064059
:103F9000FF208DF8070000208DF806002846FEF768
:103FA00041F90128FAD143F604704FF47A75C2F250
:103FB00000000DF107010DF1060201230095FEF747
:103FC000C5FA012C4FF0000540F0C5809DF80600B1
:103FD000AA2803D0BFE000BF387860B17720002165
:103FE000FFF7D6FB0128F7D869204FF08041FFF793
:103FF000CFFB0028F0D13878002800F0AB807A2081
:1040000000210025FFF7C4FB002840F0A4808DF8B4
:10401000085043F60475FF20C2F200058DF8090030
:104020002846FEF7FFF80128FAD143F60475C2F2DC
:1040300000054FF47A770DF1090102AA2846012301
:104040000097FEF783FA9DF80870FF208DF80900AD
:1040500000208DF8080000BF2846FEF7E3F801288D
:10406000FAD143F60475C2F200054FF47A740DF1EB
:10407000090102AA284601230094FEF767FAFF20EF
:104080008DF8090000208DF8080000BF2846FEF7D3
:10409000C9F80128FAD143F60475C2F200054FF4BD
:1040A0007A740DF1090102AA284601230094FEF753
:1040B0004DFAFF208DF8090000208DF8080000BFA0
:1040C0002846FEF7AFF80128FAD143F604704FF402
:1040D0007A75C2F200000DF1090102AA01230095D0
:1040E000FEF734FA0625780658BF022533E000BFF4
:1040F00077200021FFF74CFB012805D8692000211B
:10410000FFF746FB012815D941200021FFF740FBAE
:1041100010B138780028F7D101253878D0B1502077
:104120004FF40071FFF734FB002818BF002512E0A0
:10413000387858B177200021FFF72AFB0128F7D8FB
:1041400069200021FFF724FB0028F1D102253878EF
:104150000028E4D1002540F2F817C2F200074846D3
:10416000102101223D70FCF723FD43F60474FF206B
:10417000C2F200048DF80B008DF80A802046FEF78D
:1041800051F80128FAD143F604704FF47A74C2F260
:1041900000000DF10B010DF10A0201230094FEF75E
:1041A000D5F93DB1307800F0FE003070307803B0C2
:1041B000BDE8F08300207870307803B0BDE8F0836C
:1041C0002DE9F04186B028B10426304606B0BDE89E
:1041D000F08100BF15460F46052913D12878022823
:1041E0003ED0012848D00028EED140F2F810C2F2AB
:1041F000000041780026012908BF4670304606B00D
:10420000BDE8F08140F22800C2F200000078C0074B
:1042100020D140F60004C4F20104204610210022FF
:104220004FF00008FCF7C4FC0D2F4FF0040600F21D
:10423000E780DFE807F007294BE5E5E5E5E5E5E59B
:10424000E5515F67FFF79CF9B0F1FF0618BF012643
:10425000D6E000BF0326304606B0BDE8F08100BFBF
:1042600040F2F810C2F20000407800266870304634
:1042700006B0BDE8F08100BFFEF7E0FF0026304643
:1042800006B0BDE8F08100BF49200021FFF780FAA9
:10429000B0BB0DF106001021FFF7C2F980B39DF805
:1042A000060000F0C000402840F0D0809DF80E00CD
:1042B0009DF80F10800440EA81204FF6004100F580
:1042C0008060C0F2FF310840DFE000BF4FF40070B3
:1042D0002880002694E000BF49200021FFF758FA0B
:1042E00070B928461021FFF79BF9B0FA80F0460913
:1042F00086E000BF4A200021FFF74AFA0028F0D0EC
:1043000001267DE07A2000210026FFF741FA0028EF
:1043100075D18DF8176043F60476FF20C2F20006CF
:104320008DF806003046FDF77DFF0128FAD143F6EF
:104330000476C2F200064FF47A770DF106010DF112
:104340001702304601230097FEF700F99DF8170089
:104350002870FF208DF8060000208DF817003046E9
:10436000FDF760FF0128FAD143F60476C2F2000699
:104370004FF47A770DF106010DF117023046012353
:104380000097FEF7E3F89DF817006870FF208DF89E
:10439000060000208DF817003046FDF743FF012886
:1043A000FAD143F60476C2F200064FF47A770DF1A3
:1043B00006010DF11702304601230097FEF7C6F8FB
:1043C0009DF81700A870FF208DF8060000208DF8DA
:1043D00017003046FDF726FF0128FAD143F6047096
:1043E0004FF47A77C2F200000DF106010DF11702C9
:1043F00001230097FEF7AAF89DF81700E87004263D
:10440000204610210122FCF7D3FB43F60474FF2061
:10441000C2F200048DF817008DF816802046FDF7D3
:1044200001FF0128FAD143F604704FF47A77C2F203
:1044300000000DF117010DF1160201230097FEF7A0
:1044400085F8304606B0BDE8F08100BF9DF80B004E
:104450009DF8103000F00F0000EBD3109DF80F30E6
:104460009DF80E709DF80C109DF80D2003F00303CD
:1044700000EB4300BB0901F0030143EA820242EA78
:1044800081210131073801FA00F0286021E700009E
:10449000F0B583B000284FF0040070D11C46002B0B
:1044A0006DD040F22800C2F200000078C00723D18E
:1044B00040F2F810C2F20000007840F600051746FE
:1044C000C4F2010540070E4658BF57022846102186
:1044D0000022FCF76DFB012C12D151203946FFF769
:1044E00057F990B930464FF40071FFF799F8B0FAD8
:1044F00080F044091DE000BF032003B0F0BD00BF01
:1045000052203946FFF744F930B1012411E000BFD1
:10451000013C06F5007607D030464FF40071FFF7F6
:104520007FF80028F4D100E000244C200021FFF7A0
:104530002FF9284610210122FCF73AFBFF2043F611
:1045400004758DF80B000020C2F200058DF80A00FA
:104550002846FDF767FE0128FAD143F604704FF4B0
:104560007A77C2F200000DF10B010DF10A0201236E
:104570000097FDF7EBFF002C18BF0124204603B085
:10458000F0BD000000281CBF0120704740F2280049
:10459000C2F20000007870472DE9F04182B0002897
:1045A0004FF0040040F085801C46002B00F0818015
:1045B00040F22800C2F200000E460178C90723D15C
:1045C0000078400724D440F2F815C2F2000528789C
:1045D00040F600081746C4F20108400758BF5702CA
:1045E000404610210022FCF7E3FA012C14D1582098
:1045F0003946FFF7CDF8F8B93046FE21FFF720FB2A
:10460000B0FA80F044092DE0032002B0BDE8F0814B
:10461000022002B0BDE8F0812878800707D5772016
:104620000021FFF7B5F857202146FFF7B1F85920D0
:104630003946FFF7ADF828B1012413E0013C06F537
:10464000007607D03046FC21FFF7FAFA0028F5D1B2
:1046500001E000BF00240020FD21FFF7F1FA00284F
:1046600008BF0124404610210122FCF7A1FAFF20D7
:1046700043F604758DF807000020C2F200058DF89E
:10468000060000BF2846FDF7CDFD0128FAD143F60C
:1046900004704FF47A77C2F200000DF107010DF1BA
:1046A000060201230097FDF751FF002C18BF0124DB
:1046B000204602B0BDE8F0812DE9F04182B01E46EF
:1046C00090460D460446FCF779FA301A00EB0807CD
:1046D000FCF774FA40F22C01C2F200010968C1F340
:1046E000CB317943019121688A682A40AA4227D1B7
:1046F000064618F101001FD0FCF760FA801BB84293
:1047000022D2019801990028A1F1010101912168AB
:10471000896808BF074601EA0500A842ECD00FE00F
:1047200088682840A8420BD188682840A84207D151
:1047300088682840A84203D188682840A842EFD062
:10474000002002B0BDE8F081D4E900014268B1F573
:10475000827F22F0E00242600AD1A168B1F5004FE9
:1047600002D0B1F5806F03D1016821F040010160F2
:10477000A16AB1F5005F07D1016821F40051016021
:10478000016841F400510160012084F851000020CB
:1047900084F85000032002B0BDE8F08170470000AB
:1047A00040F24C20C2F20000017801310170017822
:1047B0000A290ED300210170417811B141780139E5
:1047C00041708178002908BFFCF7FEB98178013972
:1047D0008170FCF7F9B900007047000043F65C7087
:1047E000C2F20000FEF720BA10B5D0F8B822CAB164
:1047F00001EB810300EB830E5EF81C4F64B1D0F82F
:10480000C0C201EB81030CEBC303D3F838C0B4FB87
:10481000FCF303FB1C433BB100242046C2F81442C6
:1048200010BD00BF022010BD002400220023CEF8DE
:10483000004000F043FD204610BD0000B0B5D0F8A8
:10484000B852044600F002FCD4F8B812C5F80C02C5
:1048500051B1D4F8BC0205F50371C268D5F8040261
:1048600090470020B0BD00BF0220B0BDB0B581218F
:10487000044600F02DFB002520460121E56200F0F2
:1048800027FB20468221C4F86C5100F021FBD4F8AC
:10489000B802256448B1D4F8BC0240688047D4F817
:1048A000B80200F08BFFC4F8B8520020B0BD000081
:1048B00010B5D0F8BC1269B1D0F8B84294F8000233
:1048C000FF2807D08B6894F8012221469847FF20E3
:1048D00084F80002002010BD014640F2F0000A22D8
:1048E000C2F200000A807047014640F2680043228D
:1048F000C2F200000A807047014640F2AC00432239
:10490000C2F200000A807047014640F2FC004322D8
:10491000C2F200000A807047F0B581B00546007C05
:104920004027002808BF4FF4007728468121022243
:104930003B46402400F0E4FB0126284601210222E8
:104940003B46EE6200F0DCFB28468221032208236E
:10495000C5F86C6100F0D4FB4FF407702E6400F0D2
:104960002FFFC5F8B802A8B10746D5F8BC02006809
:1049700080470026C7F81462C7F81862287CD7F869
:104980000422002808BF4FF4007428460121234662
:1049900000F0CAFB304601B0F0BD000080B5D0F891
:1049A000B81279B190F810C0D1F804224023012147
:1049B000BCF1000F08BF4FF4007300F0B5FB0020FE
:1049C00080BD00BF022080BD00290EBF0220C0F8BC
:1049D000BC12002070470000D0F8B8220020C2F8B6
:1049E00004127047D0F8B8320020C3F80812C3F898
:1049F0001022704770B582B00446D0F8B86291F9C1
:104A000000000D46002210F060018DF80720ADF87F
:104A1000042013D020293DD1EA88EAB1B0F1FF3F4C
:104A200040DD6878314686F80002204686F801228B
:104A300000F06CF80024204602B070BD68780B28A6
:104A400016D00A281CD028BB94F89C02032821D138
:104A500001A9204602222EE0D4F8BC022946836830
:104A60006878002200249847204602B070BD00BF3D
:104A700094F89C0203280DD10024204602B070BD9A
:104A800094F89C02032805D10DF10701204601226C
:104A900011E000BF2046294600F02CF802242046F1
:104AA00002B070BDD4F8BC0231468368687898477C
:104AB000EA882046314600F043F80024204602B040
:104AC00070BD000080B5D0F8B42252689047002035
:104AD00080BD000080B513460A46002100F024FB8B
:104AE000002080BD80B513460A46002100F0E6FB99
:104AF000002080BD10B58021044600F0B1FB2046A7
:104B00000021BDE8104000F0ABBB000080B51346AB
:104B10000A460321C0F894120021C0E9573300F07F
:104B200003FB002080BD000080B50521C0F8941271
:104B300000210022002300F0F7FA002080BD0000D1
:104B400080B513460A460221C0F894120021C0E93C
:104B5000073300F0B3FB002080BD000080B50421C6
:104B6000C0F8941200210022002300F0A7FB0020CF
:104B700080BD000010B540F28444C2F200040A4631
:104B800002A0214600F00CF9204610BD434443200A
:104B9000436F6E666967000040F240101222C2F255
:104BA00000000A807047000010B540F28444C2F251
:104BB00000040A4602A0214600F0F2F8204610BD8B
:104BC00043444320496E746572666163650000006A
:104BD00040F264100422C2F200000A807047000014
:104BE00010B540F28444C2F200040A4602A02146F5
:104BF00000F0D6F8204610BD4E58502053454D4980
:104C0000434F4E442000000010B540F28444C2F2ED
:104C100000040A4602A0214600F0C2F8204610BD5A
:104C20004E5850204C504331315578782056434FE0
:104C30004D000000B0B54FF2E870C1F6FF70026899
:104C400083684FF01A0C9B18A1F800C000F0A380F5
:104C50004FF0370C1A0F0CEB13714068B3F1204F73
:104C600038BF02F1300140F26812C2F200029170C6
:104C700019014FF0000E0CEB117582F803E0C3F33D
:104C80000364B1F1204F38BF04F1300519021571EA
:104C90000CEB117582F805E0C3F30354B1F1204F1A
:104CA00038BF04F13005190395710CEB117582F8CA
:104CB00007E0C3F30344B1F1204F38BF04F13005DE
:104CC000190415720CEB117582F809E0C3F3033473
:104CD000B1F1204F38BF04F13005190595720CEB86
:104CE000117582F80BE0C3F30324B1F1204F38BFF4
:104CF00004F1300519061573C3F303140CEB117599
:104D0000B1F1204F4FEA037103F00F0382F80DE079
:104D100038BF04F1300503F13704957382F80FE0D2
:104D2000B1F1204F38BF03F13004010F0CEB1073C9
:104D3000147482F811E0B0F1204F38BF01F1300354
:104D400001010CEB1174937482F813E0C0F3036358
:104D5000B1F1204F38BF03F1300401021475C0F3E4
:104D600003530CEB1174B1F1204F4FEA003182F87C
:104D700015E038BF03F130040CEB1173947582F821
:104D800017E0C0F30340B1F1204F38BF00F130030A
:104D9000137682F819E040F26810C2F20000B0BD4C
:104DA00010B5002868D00378B3B100F1020E4FF0BF
:104DB000000C00BF1EF8013C93B19EF800309BB17F
:104DC0009EF80130A3B19EF802300CF1040C002BC8
:104DD0000EF1040EEED10DE04FF0000C0AE000BF22
:104DE0004CF0010C06E000BF4CF0020C02E000BFEA
:104DF0004CF0030C5FFA8CFC022303EB4C03138092
:104E000003220B704A7090F800E0BEF1000F33D01F
:104E1000023002224FF0000C1AE000BF141DE4B271
:104E200044F0010E0B5501F80EC04378002B08BF6B
:104E300010BD941DE4B244F0010E0B5501F80EC0F4
:104E400090F802E00832BEF1000F00F1040013D028
:104E5000D3B243F0010401F803E001F804C010F8F4
:104E6000013C4BB1941CE4B244F0010E0B5501F827
:104E70000EC00378002BD1D110BD0000002804BF64
:104E80000220704780B5D0F8B432002B1CBF00233D
:104E9000C0F8B432002918BFC0F8B012012180F860
:104EA0009C12027000F0D6F8002080BD80B5D0F8CA
:104EB000C002FBF79FFF40F200220223C100C0F2B4
:104EC0000122042838BF22FA01F3D8B280BD0000C5
:104ED00080B5D0F8C002FBF765FF40F20022022344
:104EE000C100C0F20122042838BF22FA01F3D8B26F
:104EF00080BD0000B0B5044671B1D4F8B402426977
:104F000042B194F89C02032804D120469047002027
:104F100054E000BF0220B0BDD4F89402002818BFAE
:104F2000042805D12046802100F09AF93DE000BF19
:104F300002283AD1D4E90810814209D9081A83B26B
:104F40002062204611461A46FFF7CCFD14E000BF50
:104F5000E169814218D3B1FBF0F202FB101098B95D
:104F6000D4F8980281420FD2204600210022002569
:104F7000FFF7B8FDC4F89852204600210022002314
:104F800000F0D2F811E000BFD4F8B402C16829B132
:104F900094F89C02032801D12046884720468021AE
:104FA00000F05EF92046FFF7BFFD94F8A00201284B
:104FB0004FF0000004BF84F8A002B0BDB0BD0000F7
:104FC000B0B5044671B1D4F8B402826942B194F824
:104FD0009C02032804D12046904700251CE000BF16
:104FE0000220B0BDD4F894020025052816D003286D
:104FF00012D1D4E95810814218D9091AC4F86011A5
:10500000814238BF084683B2204611461A46FFF750
:1050100061FD0020B0BD00BF2846B0BD2046002184
:10502000C4F8945200F01CF92846B0BDD4F8B4027C
:10503000016929B194F89C02032801D120468847D0
:105040002046FFF78BFD0020B0BD0000D0F8C00265
:10505000FBF702BF10B5044643F6144045F6004185
:10506000C2F20000C4F200010822022380E80E0010
:105070000021C0F8EC42C4F8C002C0E90611016288
:10508000FCF764FC002818BFFBF702FCD4F8C00250
:10509000002100221823FBF74FFED4F8C002802124
:1050A00000225823FBF748FED4F8C00281210022D9
:1050B000C023FBF741FED4F8C002012100224FF4C7
:1050C0008873FBF739FED4F8C002822100224FF426
:1050D0008073FBF731FE002010BD00004AB2D0F80B
:1050E000C00201F07F0101EB810100EBC10000F57E
:1050F000B571002A48BF00F12A0108787047000006
:1051000080B59446D0F8C0021A466346FBF7AEFE5F
:1051100040F200220223C100C0F20122042838BF5D
:1051200022FA01F3D8B280BD80B5D0F8C002FBF7F7
:10513000CDFE40F200220223C100C0F20122042869
:1051400038BF22FA01F3D8B280BD0000F0B581B0BB
:10515000002100224023044600254026FFF7D0FF0F
:1051600001272046802100224023C4F85871C4F84A
:105170006461FFF7C5FFD4F8B802A761666284F8DE
:105180009C72C4F894526560C4F8A45228B1D4F853
:10519000B4020021426820469047002001B0F0BDD3
:1051A00090F89C12042904BF90F89D1280F89C127C
:1051B0000020704780B590F89C12032905D1D0F8E3
:1051C000B412C969002918BF8847002080BD0000BB
:1051D000024600201174704780B5D0F8C002FCF779
:1051E00067FC40F200220223C100C0F20122042821
:1051F00038BF22FA01F3D8B280BD0000B0B500F587
:105200002A750446284600F06BF894F8A80201219C
:10521000B4F8AE22C4F8941200F01F010229C4F8B9
:10522000982209D001290DD091B92046294600F0D5
:105230007FF80020B0BD00BF2046294600F0DEF90F
:105240000020B0BD2046294600F07CFA0020B0BD09
:1052500000F08001204600F003F80020B0BD0000FF
:1052600080B5D0F8C002FBF74BFE40F200220223CB
:10527000C100C0F20122042838BF22FA01F3D8B2DB
:1052800080BD000080B5D0F8C002FCF72DFC40F2D4
:1052900000220223C100C0F20122042838BF22FAF2
:1052A00001F3D8B280BD0000014690F89C020422B0
:1052B00081F89D02002081F89C22704780B5D0F8CB
:1052C000C002FBF75BFE40F200220223C100C0F2E5
:1052D0000122042838BF22FA01F3D8B280BD0000B1
:1052E0000A7802704A7842704A8842808A888280AE
:1052F000C988C1807047000000290EBF0220C0F895
:10530000B41200207047000080B5D0F8B4223AB142
:1053100012689047002818BF0120400080BD00BFE0
:10532000022080BD80B5FFF7ADFF002080BD0000EA
:10533000B0B582B00D460978044611F060010DD079
:10534000402902D0202940F04D81D4F8B4022946EA
:10535000826820469047002002B0B0BD68780928D6
:1053600000F24081DFE810F00A0024003E01300026
:105370003E0166008A003E013800460094F89C0217
:105380000138022800F22E81E888022840F02A81A4
:10539000D4F8A4020322002808BF0122214641F8C4
:1053A0000C2F20460222FFF7CBFB002002B0B0BD3D
:1053B00094F89C020138022800F2148168880128C0
:1053C000C9D1002004E000BF68880128C3D10120B2
:1053D000C4F8A40200E100BFE888012840F002817F
:1053E00094F89C02411E02295ED20020214641F819
:1053F000080F5DE0688840F28045C1B2C2F2000546
:105400000229287080F0EE8094F89C02032857D07F
:10541000022840F07780002900F0DE80032084F825
:105420009C0220466160FFF76FFF022840F0D480A5
:10543000D8E000BFA888002840F0D480E888002881
:1054400040F0D08068887F2800F2CC8094F89C12CD
:10545000032900F0C780C5B284F89E022046294681
:10546000FFF7BAFE2046FFF779FB002D0CBF0120A5
:10547000022084F89C02002002B0B0BD68884FF082
:10548000FF3101EB102100220629ADF8062000F2C1
:10549000A980DFE801F0054729A7A7555F0000BFF5
:1054A000D4F8B002026881E0032840F09B80211DFF
:1054B00020460122FFF744FB002002B0B0BD00BF30
:1054C000002955D06068012800F08680C1B22046CE
:1054D000FFF7F8FA297820466160FFF715FF0228E8
:1054E00040F07A807EE000BFC0B2052800F27A80EA
:1054F000DFE800F004484C50545800BFD4F8B00224
:10550000426852E020468021FFF7AAFE2046002193
:10551000FFF7A6FE29782046FFF7D4FA002002B054
:10552000B0BD00BF217CD4F8B40200290CBF816A51
:10553000C16A0DF1060088470146022015E000BF50
:10554000207C00284ED1D4F8B402416B0DF1060046
:1055500088472FE0207C002844D1D4F8B402016BA6
:105560000DF10600884701460720487023E000BF80
:10557000022084F89C02002060602046FFF7A2FA17
:105580002AE000BFD4F8B00282680EE0D4F8B0027E
:10559000C2680AE0D4F8B002026906E0D4F8B002AA
:1055A000426902E0D4F8B0028269DAB1207C0DF1E0
:1055B000060190470146BDF8060048B1EA883AB1B5
:1055C000904238BF02462046ADF80620FFF7B8FAF1
:1055D000E88800287FF4BFAE2046FFF7BFFA00201E
:1055E00002B0B0BD20468021FFF73AFE20460021E0
:1055F000FFF736FE002002B0B0BD0000B0B50A468D
:105600000978044611F060010CD0402901D020290E
:1056100020D1D4F8B4021146836820469847002070
:10562000B0BD00BF50781179F0B1012834D0032803
:1056300066D194F89C02032832D15088002871D199
:1056400011F07F006ED0D08800286BD12046FFF784
:1056500007FE67E020468021FFF702FE204600217A
:10566000FFF7FEFD0020B0BD94F89C02032825D072
:10567000022808BF5FEA416042D111F0800004F1C6
:1056800014014FF0140004BF4FF4AA7004F5AA717E
:105690000022225020464FE094F89C02032839D083
:1056A00002282DD148062BD02046FFF7D9FD2046F1
:1056B0008021FFF7D5FD0020B0BD00BF01F00F0035
:1056C00000EB8000802904EB80002CBF8069D0F8BB
:1056D0005801A8B101F07F0000EB800004EB8000CE
:1056E00000F11405802938BF00F5AA7548061FD0BF
:1056F0002046FFF7F3FC002818BF012019E000BF87
:1057000020468021FFF7ACFD20460021FFF7A8FDD1
:105710000020B0BD50880028A4D1480602D0204601
:10572000FFF7C4FB2046FFF719FA0020B0BD00BF09
:1057300000202860204629460222FFF701FA0020B7
:10574000B0BD0000B0B50D460978044611F0600107
:1057500018BF402912D194F89C020138022803D8BE
:10576000A88810F0FE0F15D020468021FFF778FDA5
:1057700020460021FFF774FD0020B0BD2029EAD0AB
:1057800020468021FFF76CFD20460021FFF768FDD1
:105790000BE000BFD4F8B402294682682046904747
:1057A000E988002908BF002802D00020B0BD00BF52
:1057B0002046FFF7D3F90020B0BD0000704700007D
:1057C00040F28460C2F20000704700002DE9F04111
:1057D0000D78024691F803E000EB850330F82500D0
:1057E00047F27067BEF1030F20EA070408D80020D3
:1057F000DFE80EF002080F0C44F4007408E000BF6C
:10580000012006E044F4806402E000BF44F4C06478
:10581000002048F28007CFF6FF7744EA07061E8093
:105820001E8840F60F7426402E4337431F800F7B9F
:1058300048F2800C002F49D01C8840F60F66344097
:1058400048F28006BEF1020F08BF06F580763443A9
:105850001C80B2F850400E8902EB05152C4426F04E
:105860000106A4F80064B2F850204C892A4424F0C0
:105870000104A2F8084449781A88002902F48041FA
:105880004AD039B1198840F60F7211400CF58042A8
:10589000114319801988490607D5198840F60F72F7
:1058A00011400CF1400211431980198840F63F72F3
:1058B00011400CF120024A40BEF1010F08BF41EA3D
:1058C0000C021A80198843F60F7244E04E78B2F841
:1058D0005080CC882F01002E24F0010642D0D1192F
:1058E0004144A1F800641988490607D5198840F693
:1058F0000F7211400CF1400211431980198840F6D3
:105900003F72BEF1010F01EA020125D00CF1200225
:1059100051401980BDE8F08139B1198840F60F7205
:1059200011400CF58042114319801988490607D5AA
:10593000198840F60F7211400CF140021143198092
:10594000198843F60F7211400CF5405251401980EE
:10595000198840F63F72114041EA0C011980BDE8F8
:10596000F08100BFD41904EB0807A7F80864B2F867
:1059700050E004F20C4434F80E606FF39F2624F8D4
:105980000E6009693F290DD3CF063EF804704FEA37
:1059900051164FF0FF3808BF08EB511647EA862131
:1059A00012E000BF71B101F001063EF8047006EB91
:1059B000510147EA81212EF80410198849040DD4B9
:1059C00014E000BF3EF8041048F20006CFF6FF7660
:1059D00031432EF804101988490407D5198840F678
:1059E0000F7739400CF580473943198055B1198834
:1059F00043F60F7211400CF5005251401980BDE87A
:105A0000F08100BF118843F60F7211400CF540522F
:105A100051401980BDE8F08100207047B0B50C7886
:105A20004B78097B024630F824004CF2800C4CF293
:105A3000800500294FEA44013AD0002B00F4804051
:105A400040D040B132F8110040F60F73184040EAE0
:105A50000C0022F8110032F8110043F60F7E4006C8
:105A600040F63F7009D532F8113040F60F742340EC
:105A7000ACF57F54234322F8113032F8113040F650
:105A80000F7423402B43ACF5804522F8113032F8D7
:105A900011301840284322F8110032F81100ACF5FB
:105AA000804300EA0E000343002022F81130B0BD0D
:105AB000F3B1400640F63F7EEFD5ACF57F5540F69A
:105AC0000F70E4E740B132F8110040F60F73184050
:105AD00040EA0C0022F8110032F81100ACF57F55B5
